:100000000EC020C01FC01EC01DC01CC01BC01AC017
:1000100019C018C017C016C015C014C013C01124D1
:100020001FBECFE5D2E0DEBFCDBF10E0A0E6B0E05E
:10003000ECE0F4E002C005900D92AA37B107D9F7C1
:10004000D4D1E2C1DDCF282F2F7081E090E001C034
:10005000880F2A95EAF797B3662319F0892B87BB97
:10006000089580958923FBCF282F2F7081E090E0A1
:1000700001C0880F2A95EAF798B3662319F0892BF7
:1000800088BB089580958923FBCF96B38F7021E0BC
:1000900030E001C0220F8A95EAF7922B96BB0895B3
:1000A00026B330E08F70A90102C0559547958A9517
:1000B000E2F7CA0181700895FC0121E030E001C03F
:1000C000220F6A95EAF78081442319F0282B2083B8
:1000D000089520952823FBCF482F67E080E590E026
:1000E000EBCF482F66E080E590E0E6CF482F66E052
:1000F0008CE490E0E1CFCF93C82F482F417060E0AF
:1001000080E590E0D9DFC1FB442740F961E080E55C
:1001100090E0D2DFC2FB442740F962E080E590E046
:10012000CBDFC3FB442740F963E080E590E0CF914B
:10013000C3CFCF93C82F482F62E087E490E0BCDFA5
:100140004C2F61E087E490E0CF91B6CF8FB5089552
:100150008FBD08958EBD08958BBD08958DBD089502
:10016000CF93C82F482F417064E080E590E0A4DF72
:10017000C1FB442740F965E080E590E0CF919CCF3A
:10018000CF93C82F482F417064E08CE490E094DF57
:10019000C1FB442740F965E08CE490E0CF918CCF1F
:1001A000482F66E089E590E087CF482F65E089E534
:1001B00090E082CF482F62E089E590E07DCF6295A4
:1001C000607F642B42FB222720F930E093E0220F6E
:1001D000331F9A95E1F7282B6ABD23BF089582B794
:1001E000089582BF089589BD089588BD0895882324
:1001F00021F089B7806189BF089589B78F7EFBCFD1
:10020000882321F089B7886089BF089589B7877FDF
:10021000FBCF882321F089B7826089BF089589B711
:100220008D7FFBCF0F931F93CF93DF93009769F1DF
:100230008B01EC0161307105A1F085E090E0613047
:100240007105C8F062307105D9F083E090E0633049
:10025000710589F460E0888107DF61E08881F3DE61
:1002600006C060E08881EFDE60E08881FDDE1A83F1
:10027000098390E080E0DF91CF911F910F91089565
:1002800060E08881E0DE61E0F0CF86E090E0F3CFCF
:10029000FC016083128211821382BA01C3CFFC0178
:1002A0008081FECE1F93CF93DF930097F9F0FC017E
:1002B000218132812330310540F485E090E0213006
:1002C000310580F084E090E00DC02330310519F055
:1002D00083E090E007C0162FEC018081C5DE1B8310
:1002E00090E080E0DF91CF911F91089586E090E04B
:1002F000F9CFCF93DF93009731F1FC012181328157
:100300002330310550F485E090E02130310510F0C4
:1003100084E090E0DF91CF9108952330310519F00A
:1003200083E090E0F7CFEC0193818081992331F055
:1003300060E09ADE1B8290E080E0ECCF61E094DE2A
:1003400081E08B83F8CF86E090E0E4CF7894089545
:10035000F8940895809360000895C82F61E080911B
:10036000600071DE60E0809160007EDED0E010E031
:1003700000E00C171D075CF084E690E0EFE3FCE979
:100380003197F1F700C000000197C1F7F0CF61E0AD
:100390008091600069DE2FEF8FEC97E02150804064
:1003A0009040E1F700C0000060E0809160005CDEFA
:1003B000EFEFFFEC27E0E150F0402040E1F700C014
:1003C00000000F5F1F4FD5CF8931910528F48F5959
:1003D0009F4FFC01808108958FEF0895B7DF90E073
:1003E00080E0089590E080E00895F8DF009751F0F4
:1003F0008931910528F48F599F4FFC01808101C0FC
:0C0400008FEFABDFEFDFF2CFF894FFCFFF
:10040C001400FF0102030405060708090A0B0C0E71
:0A041C000F0D12131415161718190E
:00000001FF
